:1000000012C017C016C015C014C013C012C011C052
:1000100010C00FC00EC00DC00CC00BC00AC009C07C
:1000200008C007C006C011241FBECFEDCDBF02D04F
:1000300052C0E6CF1BBA18BA12BA83E08ABB8FEF60
:1000400087BB8FE781BB40E021E030E011C0C901F0
:10005000042E01C0880F0A94EAF78BBB5FEF65EAB4
:100060008EE0515060408040E1F700C000004F5FDB
:1000700042306CF31BBA80E090E0A901082E01C069
:10008000440F0A94EAF748BB4FEF55EA6EE041503F
:1000900050406040E1F700C00000019688309105B3
:1000A00061F718BA80E090E0A901082E01C0440F62
:1000B0000A94EAF742BB4FEF55EA6EE041505040D8
:1000C0006040E1F700C0000001968730910561F7BC
:0A00D00012BA40E0BCCFF894FFCF55
:00000001FF
