:1000000009C019C018C017C016C015C014C013C04D
:1000100012C011C011241FBECFE9CDBF10E0A0E671
:10002000B0E0E0E7F0E002C005900D92AC37B10718
:10003000D9F702D01BC0E4CF8FE187BB20E030E0CE
:1000400040EF50E0F901E05AFF4F808188BB88EB18
:100050009BE0FA013197F1F70197D9F72F5F3F4FF6
:100060002C3131057CF320E030E0ECCFF894FFCF69
:1000700001020408100804020103060C180C060310
:0C008000050A140A0503060C180C060300
:00000001FF
