:100000001DC024C023C022C021C020C01FC01EC0EC
:100010001DC01CC01BC01AC019C018C017C016C014
:1000200015C014C013C012C011C010C00FC00EC044
:100030000DC00CC00BC00AC009C008C011241FBEEF
:10004000CFEFD2E0DEBFCDBF02D078C0D9CF8FEFE7
:100050008ABB87E087BB1BBA18BA80E090E061E0FA
:1000600072E0E4E021E030E08830910594F4A901E9
:10007000082E01C0440F0A94EAF74BBB4FEF53EF31
:10008000F1E041505040F040E1F700C0000001961F
:10009000EBCF1BBA68BB4FEF53EF81E041505040AC
:1000A0008040E1F700C0000078BB9FEFF3EF41E034
:1000B0009150F0404040E1F700C00000E8BB5FEF26
:1000C00083EF91E0515080409040E1F700C0000084
:1000D000E8BBFFEF43EF51E0F15040405040E1F703
:1000E00000C0000078BB8FEF93EFF1E081509040AB
:1000F000F040E1F700C0000068BB4FEF53EF81E034
:10010000415050408040E1F700C0000018BA87E03D
:1001100090E0A901082E01C0440F0A94EAF74BBBF6
:10012000FFEF43EF51E0F15040405040E1F700C095
:100130000000019770F780E090E096CFF894FFCF31
:00000001FF
